:020000040800F2
:10000000786D0120350200083D0200082D1200081D
:1000100041020008430200084502000800000000F9
:100020000000000000000000000000003114000883
:100030004902000800000000B11200085D15000828
:100040004F0200084F0200084F0200084F0200084C
:100050004F0200084F0200084F0200084F0200083C
:100060004F0200084F0200084F0200084F0200082C
:100070004F0200084F0200084F0200084F0200081C
:100080004F0200084F0200084F020008FD07000859
:10009000ED0700084F0200084F0200084F02000859
:1000A0004F0200084F0200084F0200084F020008EC
:1000B0004F0200084F0200084F0200084F020008DC
:1000C0004F0200084F0200084F0200084F020008CC
:1000D0004F020008491A00089D1B0008F91C00087F
:1000E0004F0200084F0200084F0200084F020008AC
:1000F0004F0200084F0200084F0200084F0200089C
:100100004F0200084F0200084F0200084F0200088B
:10011000E5170008511900084F0200084F020008B7
:100120004F0200084F0200084F0200084F0200086B
:100130004F0200084F0200084F020008C1080008E3
:10014000B10800084F0200084F0200084F020008E3
:100150004F0200084F0200084F020008511E00081D
:100160004F0200084F0200084F0200084F0200082B
:100170004F0200084F0200084F0200084F0200081B
:100180004F0200084F02000800F002F800F042F8A9
:100190000AA090E8000C82448344AAF10107DA45E2
:1001A00001D100F037F8AFF2090EBAE80F0013F0F2
:1001B000010F18BFFB1A43F00103184784B9000070
:1001C000A4B90000103A24BF78C878C1FAD8520701
:1001D00024BF30C830C144BF04680C6070470000C1
:1001E0000023002400250026103A28BF78C1FBD840
:1001F000520728BF30C148BF0B6070471FB50BF0D6
:1002000012FA9DE8030000F0A5F900F0CDF81FBD3B
:1002100010B510BD00F0E1F91146FFF7EFFF07F050
:1002200089F900F019FA03B4FFF7F2FF03BC00F0FC
:100230006BF900000948804709480047FEE7FEE7E0
:10024000FEE7FEE7FEE7FEE7FEE7FEE7FEE7FEE786
:1002500004480549054A064B70470000651500082B
:100260008901000878490120786D01207869012012
:1002700078690120032A40F2308010F0030C00F06E
:10028000158011F8013BBCF1020F624498BF11F8D0
:1002900001CB00F8013B38BF11F8013BA2F1040289
:1002A00098BF00F801CB38BF00F8013B11F0030301
:1002B00000F0F880083AC0F0088051F8043B083A92
:1002C00051F804CBA0E80810F5E7121D5CBF51F807
:1002D000043B40F8043BAFF30080D20724BF11F881
:1002E000013B11F801CB48BF11F8012B24BF00F8E6
:1002F000013B00F801CB48BF00F8012B704702F02A
:10030000FF0343EA032242EA024200F024B84FF01E
:1003100000020429C0F0128010F0030C00F01B80D2
:10032000CCF1040CBCF1020F18BF00F8012BA8BFE0
:1003300020F8022BA1EB0C0100F00DB85FEAC17CA4
:1003400024BF00F8012B00F8012B48BF00F8012B57
:1003500070474FF0000200B5134694469646203988
:1003600022BFA0E80C50A0E80C50B1F12001BFF46E
:10037000F7AF090728BFA0E80C5048BF0CC05DF8D4
:1003800004EB890028BF40F8042B08BF704748BF22
:1003900020F8022B11F0804F18BF00F8012B704796
:1003A000704770477047000070B5064C7C44064D9E
:1003B0007D4404E02046016808448047241DAC4287
:1003C000F8D170BDB0B70000B0B7000070B50646F8
:1003D00000F0A0F8056806F10B0020F00704B44215
:1003E0009CBF002070BD2B466A68BAB11068A0425D
:1003F00010D304F1080188423CBF5068586007D30D
:100400005168101941601168091B0160586014603F
:10041000101D70BD13465268002AE7D121462846B8
:1004200000F084F80028DED170BD70B50446051FC9
:1004300000F070F80068002C14BF446870BD002CF8
:1004400018BFAC423CBF20466468F8D301680A1864
:10045000AA4218BF456003D12A68054611440160CD
:1004600028684119A1421CBF6C6070BD6168696059
:1004700021680844286070BD10B500F04FF800688E
:1004800010BD10B5044600F049F8046010BD10B569
:10049000002000F095F8FFF7BBFEBDE810400120FA
:1004A00000F032B810B5203AC0F00B80B1E8185017
:1004B000A0E81850B1E81850A0E81850203ABFF44E
:1004C000F5AF5FEA027C24BFB1E81850A0E81850ED
:1004D00044BF18C918C0BDE810405FEA827C24BF41
:1004E00051F8043B40F8043B08BF7047D20728BFCF
:1004F00031F8023B48BF11F8012B28BF20F8023B1E
:1005000048BF00F8012B704701491820ABBEFEE739
:10051000260002000048704718000020004870477D
:1005200010000020704770477047704738B5044688
:100530000A4600206946AFF30080002808BF38BD96
:1005400002460099204600F06DF8012038BD0120D8
:1005500000F0A8B8F8B5AFF30080054600200C46BF
:10056000102000BF0646A819A0420DD932466946A0
:100570000020AFF30080070008BF00F093F8009858
:10058000A04218BF0546C419FFF7C4FF056007461F
:10059000F01D20F007004619284600F00AF8B44282
:1005A00008BFF8BDA21B31463868BDE8F84000F02E
:1005B00039B800210160C0E9011070471020704770
:1005C00010B500F057F8BDE8104000F04EB800003C
:1005D000004870471000002070477546FFF7F8FF8D
:1005E000AE4605006946534620F00700854618B020
:1005F00020B5FFF72DFEBDE820404FF000064FF07C
:1006000000074FF000084FF0000BAC46ACE8C00903
:10061000ACE8C009ACE8C009ACE8C00921F00701AA
:100620008D467047034640688C46002818BF8842B4
:100630003CBF03464068F8D318681844884207D086
:100640000CF1030020F00700001D411A521A014668
:10065000081D0A60FFF7E9BE10B50446AFF300803D
:100660002046BDE81040FFF7DEBD002801D0FFF7AF
:100670004BBF704710B5002102A000F01AF801200E
:1006800010BD0000534947414252543A2041626E26
:100690006F726D616C207465726D696E6174696FE3
:1006A0006E00000010B500F01DF8BDE81040FFF727
:1006B000DCBF70B505460C460A2000E06D1C00F05A
:1006C00039F835B128780028F8D102E0641C00F030
:1006D00031F814B120780028F8D1BDE870400A2024
:1006E00000F028B810B5012805D0002103A0FFF7BD
:1006F000E0FF012010BD09A1F8E70000534947526F
:10070000544D454D3A204F7574206F6620686561E1
:1007100070206D656D6F7279000000003A204865A9
:100720006170206D656D6F727920636F7272757084
:100730007465640008B569468DF800000320ABBEFF
:1007400008BD000070B58AB002200121022500F02A
:10075000E1FD4FF00070012100F0E8FD40F200449F
:10076000C4F2020420460821092200F04BFD204675
:100770000921092200F046FD4FF44070089008A9B5
:1007800020468DF8245000F0F9FC40F21450C0F2DD
:100790000510079007A800F04BFDA4F5D0342046C3
:1007A00000F0E6F804AD284600F0AAFA4FF4807095
:1007B000ADF81A004FF04270CDF812000320002669
:1007C000ADF8100020462946CDF8166000F0C6F9B5
:1007D0000020C0F20110CDF80A006846CDE900669D
:1007E000ADF8086000F0D8F80AB070BD80B546F2E8
:1007F0000040C4F2000001F06FFC80BD70470000B3
:1008000070B58AB002200121022500F083FD4FF06F
:100810000070012100F08AFD4FF08060012100F09E
:1008200085FD40F20044C4F202042046062109225C
:1008300000F0E8FC20460521092200F0E3FC6020DE
:10084000089008A920468DF8245000F097FC40F24B
:100850004050C0F20510079007A800F0E9FCA4F58D
:10086000CE34204600F084F804AD284600F048FA63
:100870004FF48070ADF81A004FF04270CDF81200BE
:1008800003200026ADF8100020462946CDF816605A
:1008900000F064F90E20C0F20110CDF80A0068469D
:1008A000CDE90066ADF8086000F076F80AB070BDDA
:1008B00080B546F60000C4F2000001F00DFC80BDDA
:1008C00070470000B1F5007F1ADA4A1E1F2A32D89D
:1008D000DFE802F0104646394646463C4646464664
:1008E00046464646464646464646464646464646A8
:1008F0004646463F40F20111C0F201018160704757
:10090000B1F5004F0CDAB1F5007F19D0B1F5806F69
:1009100016D0B1F5006F18BF7047002181610FE05C
:100920001AD0B1F5803F1CD0B1F5003F02BF1021B5
:100930004160704714E0402916D0B1F5807F0FD197
:100940000421416070470821C16070471021C160D7
:1009500070470821016170470021816104214160D5
:100960007047082141607047102101617047000005
:1009700010B546F20041C4F200014FF08064884295
:1009800008BF4FF000742046012100F0DBFC204638
:10099000002100F0D7FC10BDB0B546F20061C4F2F2
:1009A000000190F80AE0037B0A68012442F001028A
:1009B0000A60CA6904FA0EF56FEA050CAA43012B16
:1009C000CA610DD0F3B9CA6802EA0C02CA60C288D3
:1009D000438843EA024201EBCE031A6403460AE06D
:1009E000CA682A43CA600288438843EA024201EB8C
:1009F000CE031A64831D82881B8843EA024201EBFE
:100A0000CE035A64C27A4B68002A43EA050408BF41
:100A100003EA0C044C600389012B04D03BB94A69FA
:100A200002EA0C0302E04A6942EA05034B61407B9B
:100A3000012802D1C8692843C861086820F0010074
:100A40000860B0BD80B502464069084200F03380BE
:100A5000FF294FF0000000F3308001393F2900F2F8
:100A60006580DFE801F0204D634F6363635163638A
:100A70006363636363536363636363636363636356
:100A80006363636363586363636363636363636341
:100A90006363636363636363636363636363636326
:100AA00063636363635A906840F20111C0F201010D
:100AB00000F082F980BD002080BDB1F5006F0ADB37
:100AC000B1F5803F15DAB1F5006F2BD0B1F5004FCD
:100AD0002CD1506809E0B1F5807F28D0B1F5007FB6
:100AE0002AD0B1F5806F21D19069042100F064F91A
:100AF00080BD26D0B1F5003F18BF80BD50680DE025
:100B0000D06804E0D0681DE0D06807E010690321D8
:100B100000F052F980BD106914E01069102100F056
:100B20004BF980BD9069702100F046F980BD906955
:100B3000012100F041F980BD9069022100F03CF9EB
:100B400080BD5068082100F037F980BD002A426955
:100B50000CBF22EA010111434161704780B5026870
:100B600022F002020260026842F0010202604FF6C7
:100B7000FF7200BFD0F804C0531E934203D21CF092
:100B800001021A46F6D04268D20704BF002080BD99
:100B900091F806C00368BCF1010F23F0800208BF82
:100BA00043F08002026091F807C00368BCF1010FB6
:100BB00023F0400208BF43F04002026091F808C0F1
:100BC0000368BCF1010F23F0200208BF43F02002AC
:100BD000026091F809C00368BCF1010F23F0100214
:100BE00008BF43F01002026091F80AC00368BCF12C
:100BF000010F23F0080208BF43F00802026091F8D9
:100C00000BC00368BCF1010F23F0040208BF43F0DE
:100C100004020260CB7891F802C00A791B0691F8B1
:100C200005E043EA8C73098843EA024242EA0E5225
:100C300001391143C161016821F0010101604FF6E2
:100C4000FF7100BF43684A1E8A4203D213F00101BC
:100C50001146F7D14068012121EA000080BD000063
:100C600010B500EB0114D4F8B0C11CF004031372EA
:100C7000D4F8B0E104F5D87C19BF4FEADE03536025
:100C80004FEA5E531360DCF80030002903F00203E2
:100C90005372D4F8B43103F00F039372D4F8B43123
:100CA0004FEA1323D374D4F8B831D372D4F8B831DF
:100CB0004FEA13231373D4F8B8314FEA1343537335
:100CC000D4F8B8314FEA13639373D4F8BC31D373BB
:100CD000D4F8BC314FEA13231374D4F8BC314FEA73
:100CE00013435374D4F8BC314FEA136393744FF039
:100CF000100208BF0C22815841F02001815010BD24
:100D00000021C0F80610418140F2032181800121B9
:100D100001607047B0B502468068400109D4906810
:100D2000000108D49068C0004FF0020058BF0420B2
:100D300002E0002000E00120042808BFB0BD02EB63
:100D40000012D2F8803102F5C07E03F00103C2F830
:100D5000803191F808C0BCF1000F03D04B684CEA19
:100D6000C30C02E00B684FEA435C4B7A8C7ADEF8E6
:100D7000005043EA0C032B43CEF8003004F00F037D
:100D80008B72D2F8845125F00F05C2F88451D2F845
:100D900084512B43C2F88431D1F80B30C2F888312A
:100DA000D1F80F10C2F88C11DEF8001041F00101EB
:100DB000CEF80010B0BD0000084018BF01207047F9
:100DC00046F20002C4F2020202F58263984240F643
:100DD0007D7002F58062C0F67D703CBF46F2000275
:100DE000C4F202028B0000EA010054BF9060D060A0
:100DF000704700000268002942F0010308BF22F09A
:100E00000103036070470000016821F001010160E7
:100E10000021016041608160C160016146F20F41C3
:100E2000C4F2020188424FF02101416122DC46F206
:100E30006F01C4F20201884240DC46F23F01C4F275
:100E4000020188426FDC46F21001C4F202018842BE
:100E500000F0C28046F22801C4F20201884201BFBC
:100E600046F20800C4F202004FF47461016008BF4A
:100E70007047F4E046F26F41C4F20201884238DC68
:100E800046F23F41C4F20201884262DC46F2104160
:100E9000C4F20201884200F0A68046F22841C4F262
:100EA0000201884201BF46F20800C4F202004FF47A
:100EB0007461C0F8001408BF7047D0E046F29F018B
:100EC000C4F2020188425BDC46F27001C4F2020106
:100ED000884200F0908046F28801C4F20201884204
:100EE00040F0BD8046F20800C4F2020040F64071B6
:100EF00086E046F29F41C4F20201884256DC46F287
:100F00007041C4F2020188427ED046F28841C4F2A8
:100F10000201884218BF704746F20C40C4F202003A
:100F200040F6407175E046F24001C4F20201884289
:100F300073D046F25801C4F20201884201BF46F262
:100F40000800C4F202004FF07461016008BF7047EE
:100F500085E046F24041C4F20201884265D046F283
:100F60005841C4F20201884201BF46F20800C4F2AF
:100F700002004FF07461C0F8001408BF70476EE0C3
:100F800046F2A001C4F20201884257D046F2B801ED
:100F9000C4F20201884201BF46F20800C4F2020016
:100FA0004FF03D51416008BF704758E046F2A04104
:100FB000C4F2020188424AD046F2B841C4F20201AA
:100FC000884201BF46F20C40C4F202004FF03D518E
:100FD000016008BF704742E046F20800C4F2020018
:100FE0003D210160704746F20800C4F202003D2135
:100FF000C0F80014704746F20800C4F202003D2118
:10100000C2F200014160704746F20C40C4F2020097
:101010003D21C2F200010160704746F20800C4F2AF
:1010200002004FF474110160704746F20800C4F2E8
:1010300002004FF47411C0F80014704746F2080023
:101040000021C4F20200C2F23D014160704746F245
:101050000C400021C4F20200C2F23D010160704761
:10106000006800F001007047406880B270470000DF
:101070000B0608D5D0F814C0002A4CF0800308BF36
:101080002CF080034361802908BF704701F01E01E6
:101090001AB10268114301607047026822EA010137
:1010A000016070472DE9F04F026848F23F03CFF22C
:1010B0001C03D1F800901A40D1E9038E01F1140C01
:1010C0009CE8F01042EA090242EA080222432A435D
:1010D00032438B6A3A43D1E90DAB42EA0C021A4320
:1010E00042EA0A0242EA0B0202604269D1E90B3786
:1010F00022F007021A433A434261C0F804E04A680A
:1011000082608968C160BDE8F08F0000B0B582B030
:101110001020012100F0FEF84FF40040009040F252
:10112000012041F20004ADF804000020C4F20204E2
:101130006D468DF806002046294600F01FF84FF452
:10114000804000902046294600F018F84FF40050E7
:1011500000902046294600F011F84FF4805000908E
:101160002046294600F00AF84FF40060009020461F
:10117000294600F003F802B0B0BD00002DE9F041AF
:10118000D1F8008000234FF0030C4FF0010E002433
:101190000FE000BFC268AA43C260CA79C5689A401E
:1011A0002A43C2600134102C03F1020308BFBDE8DA
:1011B000F08128FA04F5ED07F4D006680CFA03F57F
:1011C000AE4306600E79076806FA03F2013E3A4321
:1011D000012E0260DED88268EE43324082604A7996
:1011E0008E7987689A403A43826042680EFA04F723
:1011F000BA43426006FA04F2466892B23243426051
:10120000C8E700001C2303EA810C6FF0030303EA24
:10121000510108440F23016A03FA0CF39943016258
:10122000016A02FA0CF2114301627047FEE7000006
:1012300010B5C17800294EF20011CEF200011CD089
:101240004EF60C52CEF200021268072323EA122255
:101250000F23C2F1040C23FA02FE427884785FFA6D
:101260008CF390F800C09A4004EA0E031A4312016E
:1012700001EB0C0383F8002300E0803100780123A8
:1012800000F01F0203FA02F2C0F3421041F82020DE
:1012900010BD000040F080604EF60C5140F0FD7033
:1012A000CEF200010860704700000000000000005E
:1012B000EFF30980BFF36F8F154B1A681EF0100F04
:1012C00008BF20ED108A20E9F04F10602DE90900D9
:1012D0004FF0500080F31188BFF34F8FBFF36F8F33
:1012E00007F03AF84FF0000080F31188BDE80900DC
:1012F00019680868B0E8F04F1EF0100F08BFB0EC96
:10130000108A80F30988BFF36F8F704700BF00BF5A
:10131000C8190020002943F63001C4F202010A680E
:101320000CBF22EA0000104308607047002943F612
:101330004001C4F202010A680CBF22EA0000104317
:1013400008607047002943F62001C4F202010A68D0
:101350000CBF22EA0000104308607047002943F6E2
:101360004401C4F202010A680CBF22EA00001043E3
:1013700008607047002943F62401C4F202010A689C
:101380000CBF22EA000010430860704710B543F616
:101390000404C4F20204626802F00C0342F2004248
:1013A000082BC0F2F40206D0042B20D141F2002217
:1013B000C0F27A021BE0D4F800C0236803F03F0EAD
:1013C0005FEA4C2341F20023C0F27A0358BF134670
:1013D0002268B3FBFEFCC2F38812236802FB0CFCFC
:1013E000C3F30143022202EB4302BCFBF2F20260B0
:1013F00062684BF62803C2F30312C0F600039A5C3E
:101400000168D14041606268C2F382229A5C21FA8D
:1014100002F282606268C2F342329A5CD140C160DB
:1014200010BD0000000000000000000000000000EF
:10143000074B19680868B0E8F04F80F30988BFF3DC
:101440006F8F4FF0000080F31188704700BF00BF1E
:10145000C819002082B043F608000021C4F202003F
:101460000191009150F8081C41F4803140F8081CAB
:1014700050F8081C01F400310091019901310191EB
:10148000009919B90199B1F5A04FF1D150F8081C94
:10149000890354BF0021012100910099012936D10F
:1014A000816B41F08051816347F20001C4F2000179
:1014B0000A6842F440420A6001680160016841F430
:1014C00000410160016841F4A051016045F208410A
:1014D000C0F2407140F8041C50F8081C41F08071C3
:1014E00040F8081C50F8081C8901FBD540F2057132
:1014F000C0F8F813016821F003010160016841F0B0
:1015000002010160016801F00C010829FAD102B062
:10151000704700004EF21001CEF200010A68042864
:1015200022F0040308BF42F004030B607047000080
:1015300080B50420FFF7EEFF4EF21000CEF200005F
:10154000016841F00201016049F24001C0F202016C
:101550004160016841F00101016080BD80B500F08B
:10156000F9FD80BD10B54EF68854CEF20004206817
:101570004FF6FF7340F47000206043F60000C4F2A1
:1015800002000168CFF6F66341F00101016000211D
:10159000816002681A40026043F21002C2F2004207
:1015A0004260026822F480220260C160FFF752FFAD
:1015B0004FF0006044F8800C10BD000010B584B0FE
:1015C00008200121FFF7B2FE532001904FF0FF30B9
:1015D00040F6004402900020C4F20004ADF80C0074
:1015E00001A9204600F010F82046012100F002F881
:1015F00004B010BD0288002942F0010308BF22F0A8
:10160000010303807047000010B540F6FF32B0F8C8
:1016100000E0C4F2000240F2004C9042C4F2010C1F
:101620000FDCB0F1804F19D040F20042C4F200024A
:10163000904213D040F60002C4F2000290420DD056
:1016400011E040F60042C4F20002904206D060452C
:1016500004D00022C4F20102904204D14A882EF044
:10166000700342EA030E41F2004340F48062C4F288
:1016700000039A4204D00C892EF4407344EA030E0E
:10168000A0F800E04B686245C3620B88038504BF85
:10169000897A01860121818210BD00002DE9F04F79
:1016A00097B00420C0F220000121FFF733FE4FF471
:1016B00000200121FFF73AFE44F60044C4F2000482
:1016C00004F5DE3528460A210822FFF79BFD28464F
:1016D0000B210822FFF796FD4FF44060119040F275
:1016E0000220C0F20010129011A92846FFF746FD13
:1016F00040F23450C0F20510109010A8FFF798FD8A
:101700004FF4E12013904FF440200027159013A9C7
:1017100020461497ADF8587000F074FC2046402124
:10172000012200F0A7FB20468021012200F0A2FB4D
:101730002046012100F094FB46F27005C4F2020538
:10174000A5F130063046FFF75FFB41F21E304FF047
:1017500000690434C2F20000CDF804900294CDE98F
:1017600003074FF4FA70CDE905074FF4806B4FF48F
:101770008070CDE907B70A904FF4403803200DF18F
:10178000040A0997CDE90B87CDE90D07304651468C
:101790000F97FFF787FC30460121FFF72BFB284608
:1017A000FFF732FB4020CDE901940397CDE9040710
:1017B00028465146CDE9067BCDE90877CDE90A7880
:1017C000CDE90C77CDE90E77FFF76CFC28461021A8
:1017D0000122FFF74DFC28460021FFF70BFB17B055
:1017E000BDE8F08F80B544F60040C4F2000000F080
:1017F000A3FD80BD2DE9F04F97B00C20C0F2200072
:101800000121FFF787FD4FF480100121FFF78EFDC6
:1018100045F20004C4F2000404F5DC3528460C212E
:101820000822FFF7EFFC04F5DE36304602210822DD
:10183000FFF7E8FC4FF48050119040F20220C0F214
:10184000001011AF129028463946FFF797FC04208C
:10185000119030463946FFF791FC40F23550C0F206
:101860000510109010A8FFF7E3FC4FF4E12013904F
:101870004FF440200027159013A920461497ADF887
:10188000587000F0BFFB20464021012200F0F2FA20
:1018900020468021012200F0EDFA2046012100F0CF
:1018A000DFFA46F2B805C4F20205A5F1A8063046F3
:1018B000FFF7AAFA41F212504FF000690434C2F265
:1018C0000000CDF804900294CDE903074FF4FA70BC
:1018D000CDE905074FF4806B4FF48070CDE907B771
:1018E0000A904FF4403803200DF1040A0997CDE91E
:1018F0000B87CDE90D07304651460F97FFF7D2FB16
:1019000030460121FFF776FA2846FFF77DFA40209E
:10191000CDE901940397CDE9040728465146CDE966
:10192000067BCDE90877CDE90A78CDE90C77CDE9DA
:101930000E77FFF7B7FB284610210122FFF798FB2F
:1019400028460021FFF756FA17B0BDE8F08F0000D7
:1019500080B545F20000C4F2000000F0EDFC80BD4F
:10196000F0B597B00120C0F240000121FFF7D2FC92
:1019700010200121FFF7F2FC41F20004C4F201043F
:1019800004F5704528460A210722FFF73BFC40F288
:1019900002304FF48066129011A928461196FFF785
:1019A000EDFB204600F06EFA48F2A060C0F20100A4
:1019B000139040F20040C0F204000027159013A9D4
:1019C00020461497ADF8587000F01CFB204601210A
:1019D00000F046FA20464021012200F04BFA40F286
:1019E0002550C0F20510109010A8FFF721FC46F218
:1019F0004045C4F202052846FFF706FA4FF00060A2
:101A00000190201D029040F60470C2F20000CDE962
:101A100003073220CDE905074FF48070CDE9076751
:101A20000A904FF440300997CDE90B0701A92846E9
:101A3000CDE90D770F97FFF735FB28460121FFF71A
:101A4000D9F917B0F0BD000080B541F20000C4F232
:101A5000010000F071FC80BD2DE9F04F97B0082027
:101A6000C0F220000121FFF755FC4FF400300121A6
:101A7000FFF75CFC44F20044C4F2000404F5E435D2
:101A8000284605210722FFF7BDFB2846062107222D
:101A9000FFF7B8FB6020119040F20230129011A9BC
:101AA0002846FFF76BFB40F22650C0F2051010905D
:101AB00010A8FFF7BDFB4FF4E13013904FF4402026
:101AC0000027159013A920461497ADF8587000F020
:101AD00099FA20464021012200F0CCF920468021CD
:101AE000012200F0C7F92046012100F0B9F946F2C1
:101AF000A005C4F20205A5F118063046FFF784F9E7
:101B00004FF00060019040F636700434C2F20000DD
:101B10000294CDE903074FF4FA70CDE905074FF4BD
:101B2000806B4FF480700DF1040ACDE907B70A907D
:101B30004FF440384FF00309304651460997CDE93C
:101B40000B87CDE90D970F97FFF7ACFA30460121CF
:101B5000FFF750F92846FFF757F94FF0006001A949
:101B600091C14020CDE9040728465146CDE9067BC6
:101B7000CDE90877CDE90A78CDE90C79CDE90E7782
:101B8000FFF790FA284610210122FFF771FA284644
:101B90000021FFF72FF917B0BDE8F08F80B544F2B0
:101BA0000040C4F2000000F0C7FB80BD2DE9F04FFB
:101BB00097B00820C0F220000121FFF7ABFB4FF4E3
:101BC00080200121FFF7B2FB44F60004C4F20004B8
:101BD00004F5E235284608210722FFF713FB2846C3
:101BE00009210722FFF70EFB4FF44070119040F2DD
:101BF0000220C0F20010129011A92846FFF7BEFA89
:101C000040F22750C0F20510109010A8FFF710FB0B
:101C10004FF4612013904FF440200027159013A932
:101C200020461497ADF8587000F0ECF9204640219A
:101C3000012200F01FF920468021012200F01AF94C
:101C40002046012100F00CF946F25805C4F20205C5
:101C5000A5F130063046FFF7D7F84FF0006001904D
:101C600041F22A100434C2F200000294CDE90307C5
:101C70004FF4FA70CDE905074FF4806B4FF4807094
:101C80000DF1040ACDE907B70A904FF440384FF040
:101C90000309304651460997CDE90B87CDE90D97E9
:101CA0000F97FFF7FFF930460121FFF7A3F8284609
:101CB000FFF7AAF84FF0006001A991C14020CDE9DB
:101CC000040728465146CDE9067BCDE90877CDE9E2
:101CD0000A78CDE90C79CDE90E77FFF7E3F92846CC
:101CE00010210122FFF7C4F928460021FFF782F8EE
:101CF00017B0BDE8F08F000080B544F60000C4F2D4
:101D0000000000F019FB80BD2DE9F04F97B00420D2
:101D1000C0F240000121FFF7FDFA20200121FFF76A
:101D20001DFB41F20044C4F2010404F57445284649
:101D300007210822FFF766FA284606210822FFF746
:101D400061FAC020119040F20220C0F200101290FF
:101D500011A92846FFF712FA40F24750C0F20510C9
:101D6000109010A8FFF764FA4FF4612013904FF41D
:101D700040200027159013A920461497ADF85870FD
:101D800000F040F920464021012200F073F820467F
:101D90008021012200F06EF82046012100F060F859
:101DA00046F2A045C4F20205A5F178063046FFF7D9
:101DB0002BF84FF02060019041F206700434C2F21B
:101DC00000000294CDE903074FF4FA70CDE905074E
:101DD0004FF4806B4FF480700DF1040ACDE907B722
:101DE0000A904FF440384FF00309304651460997A6
:101DF000CDE90B87CDE90D970F97FFF753F93046E3
:101E00000121FEF7F7FF2846FEF7FEFF4FF02060A6
:101E100001A991C14020CDE9040728465146CDE9EA
:101E2000067BCDE90877CDE90A78CDE90C79CDE9D3
:101E30000E77FFF737F9284610210122FFF718F92E
:101E400028460021FEF7D6FF17B0BDE8F08F00004E
:101E500080B541F20040C4F2010000F06DFA80BD8F
:101E60008289002942F4005308BF22F40053838181
:101E700070470000002A828A0CBF22EA0101114348
:101E80008182704780B547F2FF71C4F20001884239
:101E900019DC44F6FF31C4F2000188422DDC44F223
:101EA0000041C4F2000188424ED044F60001C4F261
:101EB000000188425AD14FF480200121FFF742FAF5
:101EC0004FF480205AE040F6FF71C4F201018842CD
:101ED00027DC47F60001C4F2000188423CD047F6F7
:101EE0000041C4F20001884240D14FF0004001217E
:101EF000FFF728FA4FF0004040E044F60041C4F2FA
:101F00000001884233D045F20001C4F2000188424A
:101F10002CD14FF480100121FFF714FA4FF48010F8
:101F20002CE041F20041C4F2010188422AD041F282
:101F30000001C4F20101884218BF80BD10200121B8
:101F4000FFF718FA102022E04FF400300121FFF7CC
:101F5000F9F94FF4003011E04FF080400121FFF714
:101F6000F1F94FF080400021FFF7ECF980BD4FF40C
:101F700000200121FFF7E6F94FF400200021FFF7D0
:101F8000E1F980BD20200121FFF7F4F92020002194
:101F9000FFF7F0F980BD000001F01F024FF0010CC7
:101FA000C1F34213022B0CFA02F206D0012B14BF2C
:101FB00000F1140300F10C0301E000F110031B8891
:101FC0000088090A1A4020FA01F018BF01221040C7
:101FD00070470000C1F3421301F01F0C1421022BC3
:101FE00008BF1021012B4FF0010308BF0C21002A6C
:101FF00003FA0CF243580CBF23EA02021A43425080
:102000007047000070B584B00446008A0D46C98848
:1020100020F4405008432082A0894EF6F311084076
:10202000A9882A896B89084310431843A081A08A94
:10203000A98920F4407008436E46A0823046FFF71D
:10204000A5F941F2004144F48060C4F201018842E4
:1020500014BF06F1080006F10C0000681922B4F95B
:102060000C1050432A680223002948BF012302FABA
:1020700003F1B0FBF1F048F21F51C5F2EB11A0FBE8
:1020800001235A096FF0630302FB0300B4F90C301B
:102090000426002B48BF032600FA06F000F13200A8
:1020A000A0FB01014FF00F0048BF072000EA5110CC
:1020B00040EA0210208104B070BD000080B500F03D
:1020C000F7FE40F60850C2F2000004F05DFA01F09D
:1020D0001BFF00F04DFC80BD70B5044646F2004683
:1020E00041F66C1041F69815C4F20006C2F20000E9
:1020F000C2F20005B44208BF054620460221FEF7A1
:10210000A1FCD8B120460221FEF7DCFB2A1D2046A7
:102110000021FEF7A5FD284600F0A6F9B4420ED036
:1021200006F58060844218BF70BD40F6C850C2F208
:102130000000D0F8C0100131C0F8C01070BD40F6EA
:10214000C850C2F20000D0F8B8100131C0F8B81081
:1021500070BD000010B506F065FC012818BF06F040
:1021600009FA40F6C850C2F20000D0F8C8C047F6DD
:10217000D502C2F2E9620CFB02F248F637134FEACD
:10218000F202C0F241039A4200F28D800368816836
:10219000D0F810E000228469C0E90023C0E90221E0
:1021A000C0E9042E016A82614162816AC461C16230
:1021B000016B02624163816B8262C163016C0263E5
:1021C0004164816C8263C164016D02644165816D0B
:1021D00082640265C0E91621016ED0F8883041663C
:1021E000D0F89010C0F88C30C0F89410D0F8981047
:1021F00040F68843C0F89C10D0F8A010C2F200034B
:10220000C0F8A410D0F8A8100266C0F8AC10D0F83E
:10221000B010C0F88820C0F8B410D0F8B810C0F8DA
:102220009020C0F8BC10D0F8C010C0F89820C0F8BA
:10223000C4101968C0F8A02059609968C0F8A82097
:10224000D9601969C0F8B02059619969C0F8B820FF
:10225000D961196AC0F8C0205962996A1A60D962B6
:10226000196B9A605963996B1A61D963196C9A61F9
:102270005964996C1A62D964196D9A625965996D9D
:102280001A63D965196E9A635966996E1A64D9668C
:10229000196F9A645967996F1A659A651A669A66F2
:1022A0001A67C3E91E210CF10101C0F8C81010BD66
:1022B00044F6FF71C4F20001884240F6C851C2F2F0
:1022C000000114DC44F20042C4F20002904224D027
:1022D00044F60002C4F20002904221D044F60042CB
:1022E000C4F20002904226D101F1A00020E045F2A4
:1022F0000002C4F20002904215D041F20002C4F282
:102300000102904212D041F20042C4F20102904216
:1023100018BF704701F1B0000AE001F1900007E03A
:1023200001F1980004E001F1A80001E001F188004A
:10233000016801310160704770B582B040F2FC0164
:10234000C2F200010C6A40F69016216805468142EF
:10235000C2F2000623D0D6F874412068A8421ED0ED
:1023600040F69460C2F20000846D2068A84216D046
:1023700040F22010C2F20000046B2068A8420ED088
:1023800040F25810C2F20000D0F82C0840F27C0253
:102390000168C2F20002146EA94208BF0446284632
:1023A000FFF786FF206840F22441FFF7F5FD58B3A0
:1023B000206840F2740201888088D6F87411C2F255
:1023C00000020E681080204604F0EEFBAE421DD0E5
:1023D000218A884218D141F6FC00C2F20000006850
:1023E00090B194F8281001AA06F03AF860B101986B
:1023F00050B14EF60450CEF200004FF08051016013
:10240000BFF34F8FBFF36F8F02B070BD41F6FC007A
:10241000C2F2000000680028F6D094F8281001AA43
:1024200006F01EF80028EFD001980028ECD04EF6F8
:102430000450CEF200004FF080510160BFF34F8F87
:10244000BFF36F8F02B070BD80B504F0EFFF04F0F2
:10245000F5FF04F0FBFF05F001F805F007F805F0C3
:102460000DF805F013F880BD70B5016846F600025E
:10247000C4F20002914230D046F20042C4F200029F
:10248000914240F053814168A1F20121062900F2F6
:102490004D81DFE811F0070089004B014B01A400DA
:1024A000BF00DA0040F60856C2F2000600F10F0540
:1024B000B468284602F038FF0146204604F07EFA50
:1024C000B468284602F024FF00EE100AB8EEC00AF5
:1024D000204604F09FFAB068ECE04268A2F20321C3
:1024E000052922D8DFE811F00600CC00EA0022011D
:1024F0000501230140F60856C2F2000600F10F055F
:102500003469284602F010FF0146204604F056FACE
:102510003469284602F0FCFE00EE100AB8EEC00A4C
:10252000204604F077FA3069C4E0B2F5806F18BF36
:1025300070BDB0F80F109FED8D1A090409BA00EEB6
:10254000101AB8EEC00A80EE010A40F60851C2F235
:102550000001896B81ED010AB0F81120120412BA52
:1025600000EE102AB8EEC00A80EE010A81ED020AE0
:10257000B0F81320120412BA00EE102AB8EEC00A06
:1025800080EE010A81ED030AB0F81500000400BADC
:1025900000EE100AB8EEC00A80EE010A086B0130A6
:1025A000086381ED040A70BD40F60856C2F20006C9
:1025B00000F10F057469284602F0B6FE0146204678
:1025C00004F0FCF97469284602F0A2FE00EE100A3D
:1025D000B8EEC00A204604F01DFA70696AE040F6C1
:1025E0000856C2F2000600F10F05B469284602F051
:1025F0009BFE0146204604F09BFBB469284602F08E
:1026000087FE00EE100AB8EEC00A204604F0BAFBBE
:10261000B069A6E040F60856C2F2000600F10F05C8
:10262000746A284602F080FE0146204604F080FBD2
:10263000746A284602F06CFE00EE100AB8EEC00A7A
:10264000204604F09FFB706A8BE040F60856C2F209
:10265000000600F10F05746B284602F065FE014686
:10266000204604F04DF9746B284602F051FE00EE4E
:10267000100AB8EEC00A204604F056F9706B70E0FC
:1026800040F60856C2F2000600F10F05F46828462D
:1026900002F04AFE0146204604F090F9F46828460C
:1026A00002F036FE00EE100AB8EEC00A204604F032
:1026B000B1F9F068016D0131016570BD40F6085651
:1026C000C2F2000600F10F05B46A284602F02CFEA3
:1026D0000146204604F02CFBB46A284602F018FE9E
:1026E00000EE100AB8EEC00A204604F04BFBB06AB8
:1026F00037E040F60856C2F2000600F10F05346AD2
:10270000284602F011FE0146204604F011FB346A0F
:10271000284602F0FDFD00EE100AB8EEC00A204681
:1027200004F030FB306AC16C0131C16470BD40F609
:102730000856C2F2000600F10F05F469284602F0BF
:10274000F3FD0146204604F0F3FAF469284602F04E
:10275000DFFD00EE100AB8EEC00A204604F012FBBE
:10276000F069C16C0131C16470BD00BF0000C84296
:102770002DE9F04741F6141600F00401C2F20006FC
:1027800041F6181A316000F00801C2F2000A41F661
:102790002019CAF8001000F01001C2F2000941F639
:1027A0001C1840F6C85400F00205C9F8001000F0EB
:1027B0002001C2F20008C007C2F20004C8F80010ED
:1027C00004D001F025FFA06B0130A063002D40F282
:1027D0005815C2F200053AD040F69017C2F2000731
:1027E000D7F874118868898A01F036F9D7F87471BE
:1027F000D5F82808B98A0144033109097C2920D871
:10280000411CC5F8281805F15803AB211954D5F817
:102810002808411CC5F82818A1211954D5F8280802
:10282000397D421CC5F828281954D5F82808B968FC
:10283000BA8A1844FDF71EFDB88AD5F8281808444E
:1028400000E00020216CC5F82808481C206430688E
:1028500010B1A06C0130A064DAF8000050B140F271
:102860002010C2F20000006B806801F027FF206D8D
:1028700001302065D9F8000038B1D5F82C088068FF
:1028800002F020F8A06D0130A065D8F80000002803
:1028900008BFBDE8F08740F27C00C2F20000006E85
:1028A000806801F0F5FF206E01302066BDE8F087FA
:1028B00080B541F6241340F6C852C2F20003C2F2BA
:1028C00000021868D2F8BC10D2F8C42041F2873C4C
:1028D00001306145186009D842B14AF6AB21CAF609
:1028E000AA214843B0F1553F0AD980BD624503D8BB
:1028F000C00718BF80BD03E041F28730814206D88F
:1029000040F25410C2F2000003F098FE80BD40F285
:102910005410C2F20000002103F0B4FE80BD00009C
:1029200040F6244541F6281640F6C85740F6946410
:10293000C4F20005C2F20006C2F20007C2F20004AF
:102940002868306001F03EFF97ED320A2046B8EE6D
:10295000400A84ED140A03F04DFFB8680130B860F6
:1029600028683168401AF866012005F0FBFBE7E7AC
:10297000B0B582B005F05CFB01204BF6383440F670
:102980000075009043F60920C0F60004C2F200056D
:10299000C0F60000214664220023019506F012F8DB
:1029A00040F6F860C2F20000019044F2A140042514
:1029B000C0F600002146C8220023009506F002F868
:1029C00040F6F460C2F20000019044F24570C0F697
:1029D00000002146C8220023009505F0F3FF40F6D1
:1029E000F060C2F20000019043F69130C0F60000A2
:1029F0002146C8220023009505F0E4FF40F2700C48
:102A000044F26560C2F2000CC0F600002146C82204
:102A100000230095CDF804C005F0D4FF022040F259
:102A20007805009042F62110C2F20005C0F60000C1
:102A30002146C8220023019505F0C4FF032040F67B
:102A4000FC65009042F61950C2F20005C0F6000085
:102A50002146C8220023019505F0B4FF052041F668
:102A60000015009042F6CD40C2F20005C0F600000D
:102A70002146C8220023019505F0A4FF05F0A2FC21
:102A800041F6FC01C2F20001086005F0E1FA05F030
:102A90001FFC02B0B0BD0000B0B52DED028B40F6BA
:102AA0000855C2F20005A878E8B1E86A9FED2C1A33
:102AB00090ED020A006B80EE010A90ED038A06F0A9
:102AC00089FBE86A9FED271A006B20EE010A90ED62
:102AD0000B1A30EE480AB4EE410AF1EE10FA09DDA5
:102AE000B0EE410A0FE0286B9FED1F0A006B00213A
:102AF000C16008E0B1EE411AB4EE410AF1EE10FAFD
:102B0000B8BFB0EE410ABDEEC00A296B10EE100A44
:102B1000096B40F2201491ED030AC2F20004A4F8FC
:102B20000300BDEEC00A10EE101AA4F8051043F61B
:102B3000A401A4F807104FF480716181002195F879
:102B40008020C0F60A51601CE1600F21627201F022
:102B5000E5FD204604F062F9BDEC028BB0BD00BF7C
:102B6000DE2E654200803B4500000000F0B581B0DC
:102B700040F69014C2F2000494F8E9020130C1B2A8
:102B80000A2984F8E902C0F0848040F25810C2F2A9
:102B90000000D0F84B10D0F84F0000EE101AB2EE43
:102BA000041A02EE100A20EE010A22EE011A032096
:102BB00084F80A01BDEEC00ABDEEC11A94F8EA021B
:102BC00010EE105A11EE106A70B90020A4F8E2025B
:102BD00004F20F106221A4F8E452A4F8E662FDF7B3
:102BE00096FB0120A4F8EA0294F8E40294F8E612B5
:102BF00094F8EB222F1A312AA6EB010120D394F886
:102C00000FE194F840C194F8E23294F8E322A3EB88
:102C10000E03A2EB0C0284F8E23284F8E32204F5FE
:102C2000877230239078013B02F8010F92F832004E
:102C300082F83100F6D194F8EB22013A84F8EB22C5
:102C400094F8EB0204F585721044477194F8EB0296
:102C5000104480F8361094F8E20294F8E3223844E5
:102C600084F8E20240B21144281A94F8EB32A4F836
:102C70000B0148B2301A5A1CA4F80D01002084F848
:102C8000E31284F8EB22A4F8E452A4F8E66284F894
:102C9000E90294F8E8020130C1B2642984F8E8023C
:102CA00011D304F27F1004F585716722FDF7E2FA73
:102CB00004F5BC70702101F031FD204604F0CCF920
:102CC000002084F8E80201B0F0BD000082B040F6B8
:102CD000244441F6FC0841F62C1740F6C855C4F2CE
:102CE0000004C2F200084FF0FF36C2F20007C2F241
:102CF000000500BFD8F80000FF2101220023009644
:102D000005F0BAFB21683960FFF732FD20683968A9
:102D1000401AC5F88400EDE740F6244441F630152A
:102D200040F6C856C4F20004C2F20005C2F2000622
:102D30002068286000F012F800F008F900F044FF65
:102D400001F0CAFB30690130306120682968401AFF
:102D50003067012005F006FAEAE7000070B540F69A
:102D6000C850C2F20000D0F88C0040F2F8050428E8
:102D7000C2F2000529D840F69010C2F20000007897
:102D800000F0F000402840F60850C2F2000044D1A4
:102D900090F8431040F6C313B1FA81F14909890054
:102DA0002970B0F898100022994240F6B73380F8A5
:102DB000802088BF0122994280F8A4208CBF40F671
:102DC000B8310131A0F898103BE040F2FC00C2F2AB
:102DD0000000017F407F022908BF02281BD0022982
:102DE00008BF032821D0022908BF01281FD00329CA
:102DF00008BF01281DD0012908BF01281BD00329C5
:102E000008BF032819D0032908BF022803D00129CD
:102E100008BF022813D0002012E00021A0F898106B
:102E20002970012180F8A4100BE0012008E00220A5
:102E300006E0032004E0042002E0052000E0062074
:102E400028702878811E03294FF0020105D3062837
:102E500003D0012814BF0021012140F60854C2F21A
:102E60000004204602F0BCFB287840F20112013831
:102E7000C0B2C10004284FF00000C0F2022238BFE7
:102E800022FA01F0C1B22046002602F0F1FA2878B9
:102E900040F202320338C0B2C100C0F2022204285C
:102EA00038BF22FA01F6F1B2204602F0C1FB70BD34
:102EB000B0B582B044F20044C4F2000440F2FC0019
:102EC00004F54C41C2F2000003F0ACFC40F6901057
:102ED000C2F20000214604F0A9F840F6946004F51F
:102EE0008061C2F2000003F073FC40F2201004F590
:102EF0000061C2F2000003F07DFF40F2581004F5BB
:102F00004061C2F2000002F05DFA40F27C0004F57C
:102F10005041C2F2000004F001F941F66C1004F5D2
:102F200000510825C2F2000000220023009502F0A3
:102F30003FFA41F6981004F51051C2F20000002249
:102F40000023009502F034FA02B0B0BDF0B581B0B4
:102F50002DED0C8B40F22015C2F2000555F8120F32
:102F600040F6085400EE100A6868A968C2F200042E
:102F7000EA6808EE100A206B09EE101A02210AEE28
:102F8000102A03F075FE206B0221B0EE480A03F010
:102F90008BFEE06A0221B0EE490A03F069FEE06AA6
:102FA0000221B0EE4A0A03F07FFE28696E6909EE3D
:102FB000100A41F60C10C2F20000007841F64015EC
:102FC000C007C2F20005BFF35F8F00F0AA8241F68E
:102FD0001010C2F20000007841F64417C007C2F298
:102FE0000007BFF35F8F00F0AE8295ED001A9FEDF2
:102FF000F2AA39EE410A9FEDF12AB4EE4A0AF1EE47
:1030000010FAC8BFB0EE420A9FEDED2AC8BFB0EE7D
:10301000419AB4EE420AF1EE10FA08EE106A04DDAD
:103020009FEDE81A30EE010A08E09FEDE71AB4EED2
:10303000410AF1EE10FAB8BF30EE0A0A97ED001A15
:10304000A06A30EE010A022187ED000A85ED009AA0
:1030500003F00EFEA06A0221B0EE480A03F024FE3F
:10306000E068B7EE008A0121B0EE480A03F07EFC6A
:10307000A0680121B0EE480A03F078FC2069012124
:10308000B0EE480A03F072FC60690121B0EE480A14
:1030900003F06CFCE069BFEE009A0121B0EE490A32
:1030A00003F002FEA0690121B0EE490A03F0FCFD25
:1030B000206A0121B0EE490A03F0F6FD606A0121A1
:1030C000B0EE490A03F0F0FDE0690021B0EE490AD4
:1030D00003F0CEFDA0690021B0EE490A03F0C8FD5F
:1030E000206A0021B0EE490A03F0C2FD606A0021A7
:1030F000B0EE490A03F0BCFD606B0021B0EE480A57
:1031000003F0CAFB606B0021B0EE480A03F0A8FB95
:10311000E0689FEDAEBA90ED070AE06980EE0B2AF9
:1031200090ED021AA06A81EE0B0A216B90ED061A4F
:1031300091ED023A94ED0F4A31EE031A9FEDA48A05
:1031400031EE441A84ED111A22EE089A06F042F884
:10315000A068A16990ED071A91ED022A81EE0B3A61
:1031600082EE0B1A29EE009A23EE08CAB0EE410A4D
:1031700006F030F86069616A90ED071A91ED022A55
:1031800081EE0B3A82EE0B1A2CEE000A39EE409AD1
:1031900023EE08CAB0EE410A06F01CF82069216A45
:1031A00090ED071A91ED022A81EE0B3A82EE0B1A8E
:1031B0002CEE000A39EE409A23EE08CAB0EE410A1E
:1031C00006F008F8E068E16990ED071A91ED022A2F
:1031D00081EE0B3A82EE0B1A2CEE000A39EE009AC1
:1031E00023EE08CAB0EE410A07F0AAF8A068A16968
:1031F00090ED071A91ED022A81EE0B3A82EE0B1A3E
:103200002CEE00CA23EE08DAB0EE410A07F098F877
:103210006069616A90ED071A91ED022A81EE0B3A1E
:1032200082EE0B1A2DEE000A3CEE40CA23EE08DABD
:10323000B0EE410A07F084F82069216A90ED071A80
:1032400091ED022A81EE0B3A82EE0B1A2DEE000A66
:103250003CEE40CA23EE088AB0EE410A07F070F84F
:1032600028EE000A3CEE000AB5EE001A29EE018AAB
:1032700020EE019AB0EE490AF0EE480A01F0C0FED5
:1032800041F60810C2F20000007841F63C1520EE2D
:103290000BCAC007C2F20005BFF35F8F00F0658163
:1032A00041F60410C2F20000007841F63816C0075B
:1032B000C2F20006BFF35F8F00F0698195ED000A4E
:1032C0009FEDBFDA3CEE400AB4EE4D0AF1EE10FA83
:1032D00004DD9FEDBA1A30EE010A08E09FEDB91A3D
:1032E000B4EE410AF1EE10FAB8BF30EE0A0A96EDDC
:1032F000001A85ED00CA30EE010A94ED111A86ED30
:10330000000A30EE410A84ED120A28EE080A29EE7E
:10331000091A30EE018AB0EE480A07F0D9F8B4EE87
:10332000400AF1EE10FA80F1448140F6C855C2F22D
:103330000005D5F8AC0084ED130A512840F258106E
:10334000C2F2000017D3D0F8331000EE101A41F685
:103350003411C2F2000191ED002A20EE0B1A31EE79
:10336000420AB4EE4D0AF1EE10FA08DD9FED932A01
:1033700030EE020A0CE0012180F854102EE09FED9F
:10338000912AB4EE420AF1EE10FAB8BF30EE0A0A02
:1033900081ED001A94ED0F1A90F8550030EE010AF5
:1033A000012884ED0F0A15D194F8401091B1012045
:1033B00084F8410012E000BF0000B44300000000A8
:1033C0000000B4420000B4C30000B4C2DE2E654267
:1033D000295C8F3D10B90120A4F84000D5F8940075
:1033E0003328C0F0888040F69016C2F20006B6F886
:1033F0004E00D6F8551000EE100AB8EE408AB6F826
:103400005900B0EE481A00EE100AF8EE400AA06B20
:1034100000EE101A03F068FFA06B03F01BFFA06B17
:10342000B0EE480A03F0ECFE96F8960043381728F1
:1034300021D8DFE800F00C20200E132020202020CF
:1034400020202020202020202017201B201D0120AC
:1034500009E040F20110A4F840000CE00020A4F8BC
:10346000400008E0002084F8430004E0002000E071
:10347000012084F84200F08FB6F85B10A0F128021A
:103480008A420ADBB6F84410002918BF002807D08A
:10349000B6F85D002839814202DA012084F89400F0
:1034A00094F8940020B1B4F896000130A4F8960086
:1034B000B4F8960040F6C511884222BF002084F877
:1034C0009400A4F89600D6F8760000EE100AB5EE47
:1034D000400AF1EE10FA0AD094ED281AB4EE410A2F
:1034E000F1EE10FA03D0D4F89C0003F03FF9D6F8BF
:1034F0007600C4F8A000D5F8B4000021332884F881
:1035000095100AD340F27C00C2F2000090F835001A
:10351000002818BF012084F89500BDEC0C8B01B089
:10352000F0BD41F60C10C2F2000003F04DFF002880
:103530003FF44DAD41F60C10C2F2000085ED009A4B
:1035400003F070FF43E541F61010C2F2000003F0F3
:103550003BFF00283FF449AD41F61010C2F20000D5
:1035600087ED009A03F05EFF3FE541F60810C2F2D6
:10357000000003F029FF00283FF492AE41F6081046
:10358000C2F2000085ED00CA03F04CFF88E641F668
:103590000410C2F2000003F017FF00283FF48EAEC3
:1035A00041F60410C2F2000086ED00CA03F03AFFB3
:1035B00084E6B0EE480A06F08BFFB6E60000B4C31E
:1035C00000003443000034C370B540F69010C2F2DE
:1035D000000090F8361040F27C040729C2F2000483
:1035E00044D1B0F8EC22B0F81CC00921E1702AB92E
:1035F000BCF1000F1CBF012184F86C10B0F8EE1272
:10360000B0F81EE029B9BEF1000F1CBF012184F8FB
:103610006D10B0F8F012028C21B9002A1CBF0121F4
:1036200084F86E10B0F8F232418C23B900291CBF27
:10363000012384F86F30B0F8F452838C25B9002B45
:103640001CBF012584F87050058D94F86C60002D26
:1036500018BF0125002E84F871504BD0B4F8725079
:1036600042F21076B54245D8013546E0B0F8EC227A
:10367000B0F80CC00A21E1702AB9BCF1000F1CBFE0
:10368000012184F86C10B0F8EE12B0F80EE029B900
:10369000BEF1000F1CBF012184F86D10B0F8F012CC
:1036A000058A21B9002D1CBF012184F86E10B0F8E5
:1036B000F222418A22B900291CBF012284F86F201E
:1036C000B0F8F422838A22B9002B1CBF012284F8AF
:1036D0007020028B94F86C60002A18BF012284F8D5
:1036E0007120BEB1B4F8722042F21076B24211D805
:1036F000013212E0002584F86C5094F86D60A4F853
:103700007250BEB1B4F8745042F21076B54211D87E
:10371000013512E0002284F86C2094F86D60A4F862
:103720007220BEB1B4F8742042F21076B24211D8C1
:10373000013212E0002584F86D5094F86E60A4F810
:103740007450BEB1B4F8765042F21076B54211D83A
:10375000013512E0002284F86D2094F86E60A4F820
:103760007420BEB1B4F8762042F21076B24211D87D
:10377000013212E0002584F86E5094F86F60A4F8CE
:103780007650BEB1B4F8785042F21076B54211D8F6
:10379000013512E0002284F86E2094F86F60A4F8DE
:1037A0007620BEB1B4F8782042F21076B24211D839
:1037B000013212E0002584F86F5094F87060A4F88C
:1037C0007850BEB1B4F87A5042F21076B54211D8B2
:1037D000013512E0002284F86F2094F87060A4F89C
:1037E0007820BEB3B4F87A2042F21076B24231D8D3
:1037F000013232E0002584F870500678A4F87A503F
:1038000006F0F005402DA0F8ECC2A0F8EEE2A0F81A
:10381000F022A0F8F212A0F8F43218D194F8640063
:10382000A8B90120B2F5967F84F8640000F0B88052
:10383000B1F5967F00F0C080B3F5967F07D194ED87
:103840001A0AB1EE041A30EE010A84ED1A0A402D6C
:103850002FD132E0002284F87020A4F87A20027878
:10386000A0F8ECC202F0F002402AA0F8EEE2A0F8C4
:10387000F052A0F8F212A0F8F43218D194F86400D3
:10388000A8B90120B5F5967F84F8640000F0A18006
:10389000B1F5967F00F0A980B3F5967F07D194ED3E
:1038A0001A0AB1EE041A30EE010A84ED1A0A402A0F
:1038B00003D0002084F86400A06640F60850C2F2ED
:1038C0000000C16A826A8968A36EC4F80510916815
:1038D000D0F89C20C4F80910116840F25812C2F2C6
:1038E0000002C4F80D1092F85310C4F811300929E1
:1038F0001CD040F6C853C2F20003D3F8AC30042BFE
:1039000014D9D2F83B30D2F83F60D2F84350D2F805
:10391000472000EE101AC4F81530C4F81960C4F836
:103920001D50C4F82120B8EE400A0DE00021C4F873
:103930001510C4F81910C4F81D100021CCF2C821CC
:103940009FED300AC4F8211010EE101A006BC4F875
:10395000251080689FED2B2AC4F8290040F2201022
:10396000C2F20000D0F82A10B7EE001A00EE101ACA
:10397000B5EE400AB0EE420AF1EE10FAB8BFB0EE72
:10398000410AC8BFB0EE420A10EE101A601CC4F81B
:103990002D10322100F0C2FE204603F0D3FB70BD93
:1039A00094ED1A0AB0EE081A30EE010A84ED1A0AF4
:1039B000B1F5967F7FF440AF94ED1A0AB1EE001A8C
:1039C00030EE010A84ED1A0AB3F5967F3FF437AF63
:1039D0003DE794ED1A0AB0EE081A30EE010A84EDC4
:1039E0001A0AB1F5967F7FF457AF94ED1A0AB1EE3B
:1039F000001A30EE010A84ED1A0AB3F5967F3FF4FF
:103A00004EAF54E70000000040F6244541F648164A
:103A100040F2541440F6C857C4F20005C2F2000642
:103A2000C2F20004C2F2000728683060204602F0AB
:103A3000FBFD00F0D5FD00F065FDFEF739FF3868AD
:103A40000130386028683168401AB8664FF4FA705F
:103A500004F088FBE8E700002DE9F04FBFB06E46A8
:103A60000C4605463046FA21FCF773FC002C00F0AA
:103A70007C804FF0000A002005E000BF013C05F10A
:103A8000010500F072805FFA8AF10629F6D82A78DB
:103A9000DFE801F0122D1B0421394500471CC0B29C
:103AA0003254F9B2304600F023FE002818BF01203E
:103AB0004FEA800A3846E1E7A52A53D1A5208DF8C0
:103AC000000001204FF0010AD8E7C1B20130725462
:103AD0004FF0030AD2E7411CC0B2CBB23254072BDD
:103AE00004BF4FF0050ABDF805B00846C6E7411C03
:103AF000C0B2CBB23254032B04BF4FF0020ABDF860
:103B000001800846BAE7C1B2013072540722C1B23F
:103B100012FA88F28A4208BF4FF0060AAEE700F1B7
:103B2000010909235FFA89F113FA88F3C0B28B42C5
:103B3000325415D1304600F021FE88B11FFA8BF0C7
:103B40001FFA88F2314601F0B3FA40F6C851C2F2CA
:103B50000001D1F890004FF0000A0130C1F8900048
:103B600048468BE74FF0000A88E73FB0BDE8F08F8A
:103B700061B14BF6382C0138C0F6000C10F8013F4B
:103B8000D2B25A401CF802200139F7D110467047D2
:103B900040F6244441F64C1540F6C856C4F20004E1
:103BA000C2F20005C2F2000620682860FEF774FF2A
:103BB000306A0130306220682968401AB0670120FD
:103BC00004F0D0FAF0E7000080B500F097FC00F0B8
:103BD000F1F900F05DF880BD10B540F60850C2F272
:103BE0000000D0E9121040F25814C2F20004C4F8E8
:103BF000111040F27C01C2F20001C4F80D00D1F8AE
:103C00004700D1F84B20C4F81500D4F82808C4F8B0
:103C1000192000F12D02D1F84F30D1F853C0D1F85E
:103C2000571012097C2AC4F81D30C4F821C0C4F80A
:103C3000251020D8411CC4F8281804F15801AB22E3
:103C40000A54D4F82808421CC4F82828A0220A5490
:103C5000D4F82808421CC4F828282A220A54D4F888
:103C600028082A220844611CFCF704FBD4F8280821
:103C70002A30C4F82808D4F82808D4F82C18488426
:103C8000204601F0B7FB0020C4F82808E07010BD02
:103C9000B0B540F60854C2F200042179D4F884008B
:103CA00041F65015C2F200050229286010D0012902
:103CB00008D140F2FC00C2F20000408B40F2CE324C
:103CC000904201D2012004E040F23242904202D9F7
:103CD000002084F8800094F8803094F89400012942
:103CE00040EA030208BF002A18D0012921D103B3FA
:103CF00040F2FC00C2F20000008B40F2CD3188425D
:103D000025D8B4F8AA00B0F57A7F00F1010004BF0D
:103D1000012184F89410A4F8AA002CE040F2FC00E1
:103D2000C2F20000008B40F2CD31884213D801204E
:103D300016E0022908BF002A53D0E0B9616B0020C9
:103D40008968C4F884002860C4F8901013E000204B
:103D5000A4F8AA000FE040F2334188420BD31120AF
:103D600040F6C851C2F20001D1F8C81084F88800AA
:103D7000204602F0F3FB606B9FED612A90ED020A92
:103D800090ED031A30EE413AB4EE423AF1EE10FAF9
:103D900002DD9FED5A1A0AE09FED582A31EE401AD3
:103DA000B4EE421AF1EE10FA05DD9FED561A30EE30
:103DB000010A84ED240AD4F8840029689FED511A81
:103DC000401A00EE100AB8EE400A94ED242A20EEC4
:103DD000010A32EE000A204684ED240A02F064FB58
:103DE000B0BD94F8A4100029A7D040F27C01C2F223
:103DF0000001A26AD1F83B3092ED020A01EE103ABE
:103E000031EE400AB0EEC00AB0EE001AB4EE410A3C
:103E1000F1EE10FA91DAD1F83F20B6EE002A00EE6A
:103E2000102AB4EE420AF1EE10FA7FF786AFE26A8A
:103E3000D1F8373092ED020A02EE103A32EE400A23
:103E4000B0EEC00AB7EE002AB4EE420AF1EE10FA64
:103E5000BFF673AFD1F8432000EE102AB4EE420A49
:103E6000F1EE10FA04D191F86C20002A7FF465AFCE
:103E7000B4EE410AF1EE10FA0DD191F86D20002A4E
:103E80007FF45BAF40F25812C2F2000292F8542065
:103E9000002A3FF452AFB0EE081AB4EE410AF1EE38
:103EA00010FA04D191F86E20002A7FF446AFB1EEEB
:103EB000001AB4EE410AF1EE10FA04D191F86F2025
:103EC000002A7FF43AAFB1EE041AB4EE410AF1EEE3
:103ED00010FA04D191F87020002A7FF42EAFB1EED1
:103EE0000C1AB4EE410AF1EE10FA7FF438AF91F8F3
:103EF000711000297FF421AF31E700BF00FF3F4779
:103F0000C0FEEF4800FF3FC710B544F20044C4F2C2
:103F1000000404F54C4040F224410122FEF75AF817
:103F2000204640F224410122FEF754F804F5806057
:103F300040F224410122FEF74DF804F5006040F202
:103F400024410122FEF746F804F5406040F2244186
:103F50000122FEF73FF804F5504040F224410122CF
:103F6000FEF738F804F5005002210122FCF7EEFDBF
:103F700004F5105002210122FCF7E8FD10BD0000FD
:103F800080B598B181B14BF6380C0138C0F6000C01
:103F900010F801EFD3B283EA0E033CF8133092B26B
:103FA000013983EA1222F3D190B280BD4FF6FF723D
:103FB00090B280BD70B52DED048B40F60856C2F26C
:103FC0000006B078022853D0012840F0CF8040F29C
:103FD000FC00C2F20000418A9FEDEB2A00EE101AAD
:103FE000B8EE400A30EE020A9FEDE83AB0EEC01A91
:103FF0009FEDE70AB4EE431AF1EE10FAB0EE401A64
:104000000DDDA1F5806101EE101A9FEDE24AB8EED8
:10401000C11A81EE041A9FEDE04A21EE041A808A4B
:1040200004EE100AB8EE444A34EE022AB0EEC22A78
:10403000B4EE432AF1EE10FA0DDDA0F5806000EE3B
:10404000100A9FEDD42AB8EEC00A80EE020A9FED56
:10405000D22A20EE020A96ED2B8A96ED2C2A31EE1A
:10406000081A30EE020A86ED2B1A86ED2C0A20E1A2
:1040700096F8A400002800F09D8040F27C05C2F272
:104080000005D5F83700B3EE049A00EE100AB4EE3E
:10409000490AF1EE10FA80F2828096F89500002825
:1040A0007DD0BAEE041AB4EE410AF1EE10FA76DDD4
:1040B000D5F83B0004F025FF002870D0D5F8370074
:1040C00004F01FFF00286AD0D5F83B0096ED2B8A3C
:1040D00004F017FF052804BFD5F83B00C6F8AC0074
:1040E000D5F8370004F00DFF052804BFD5F83700D8
:1040F000C6F8B00096ED2B0A9FEDD81A30EE480AAC
:10410000B0EEC00AB4EE410AF1EE10FAC8BF86ED77
:104110002B8AB06AD5F83B1090ED020A01EE101A16
:1041200031EE400AB0EEC04AB1EE040AB4EE404AA5
:10413000F1EE10FA80F23281B0EE005A9FEDCC0A17
:104140009FEDCC2A9FEDCC3AB4EE454AB7EE001A6B
:10415000F1EE10FA4FF00101C0F22C8196F8A72081
:10416000B0EE424A002A00F03D8125E1D6E90A017D
:1041700096ED2B8A80688968C6E92B010020002112
:1041800006EB8102926A01319368D2E90B5403294C
:10419000D360AB61C5E90030E060F1D189E0B6F8E9
:1041A000B80081087C290BD896ED2B8A0130A6F83F
:1041B000B80054E096ED2B8A0020C6F8B00078E0F5
:1041C00096F8A500B0A1002808BF043196F8A60013
:1041D00091ED000AAEA1002808BF043191ED001A4C
:1041E00096ED2B8A96ED2C2A38EE003A31EE020A33
:1041F000B2EE001AB4EE410AF1EE10FA86ED2B3A57
:1042000086ED2C0A01DD002007E0BAEE041AB4EEB8
:10421000410AF1EE10FA02DA012086F8A600D5F87C
:104220004300B6EE001A00EE100A96F8BA00B4EE9B
:10423000410AF1EE10FA02DA08B1002006E0B4EE0D
:10424000410AF1EE10FA03DD10B1012086F8A50055
:104250004FF41670A6F8B800002086F8BA0006F1F0
:10426000280207CACB6A496B0025C4F2A0150D606D
:104270000021C4F2FA41D9600021D961C36A406BC0
:104280000025C4F27015056048F20000C4F2D44065
:10429000D860D961D06A0023C4F2FA33516BC3608D
:1042A0000020C4F220200860106B0021C4F24821D5
:1042B0000160B078022829D0012824D140F2FC0006
:1042C000C2F20000C08A9FED741A00EE100AB8EE28
:1042D000400A30EE010A9FED711AB0EEC00AB4EE4A
:1042E000410AF1EE10FA16DD96F8BE009FED5E0A67
:1042F00000284FF00100B3EE0E1A08BFB0EE410ADD
:1043000086F8BE0022E0307803280CD196ED2B0A07
:1043100038EE400A1AE096ED2B0A002086F8BE001F
:1043200038EE400A12E09FED500A0020002100BF45
:1043300006EB8102926A01319368D2E90B5403299A
:10434000D360AB61C5E90030E060F1D1306BFAEECB
:10435000040A90ED031A30EE011A96ED2C0A86ED50
:104360002D1AB3EE041A00F03BFEF0EE400A96ED73
:104370002B0A96ED2D1A3046C6ED2C0A02F08AF86B
:10438000BDEC048B70BD00BF000080C4000048423B
:104390000000000000002544CDCC4CBD9FED300A4C
:1043A0009FED304A9FED301A9FED302AB2EE0E3A63
:1043B000002101E0B0EE424A86F8A710416BC06AC6
:1043C00081ED003A316B80ED032A80ED071AD1E9C7
:1043D0000B02496B80ED034A0020C4F2482081EDB6
:1043E000000A1060F06AD5F8371090ED020A01EE6D
:1043F000101A31EE400AB0EEC02AB0EE080AB4EE50
:10440000402AF1EE10FA12DAB7EE083A9FED1C0AD4
:104410009FED1C1A9FED129AB4EE432AF1EE10FAAA
:104420004FF0010108DB96F8A8207AB104E09FED77
:104430000E0A9FED121A002186F8A810416BC06A7F
:1044400081ED009A80ED031A80ED070A0020A6F89E
:10445000B800012086F8BA002BE700BF0000344303
:10446000000020420080BB44000000000080D444D3
:104470000000C84200409C4600000C420000FA4484
:10448000CDCC4C3F00C0DA45CDCCCC3DCDCCCCBD65
:104490000AD7233D0AD723BD000080C4000048424C
:1044A00040F6244441F6541540F6C856C4F20004C0
:1044B000C2F20005C2F2000620682860FEF756FB33
:1044C000306B0130306320682968401AC6F88000DC
:1044D0000A2003F047FEEFE710B540F60854C2F299
:1044E0000004204602F01EF8204602F009F820469B
:1044F00001F0DEFF204601F063FE10BD80B500F044
:10450000F3F980BDF0B581B041F6581540F6C857B3
:10451000C2F20005C2F200072868D7F89C104CF6DA
:10452000CD4601303129CCF6CC46286018D8A0FB06
:104530000612D10801EB8101A0EB410002280FD83F
:1045400040F25414C2F200042046012102F080F827
:104550002046002102F08AF82046002102F092F85D
:10456000D7F8B40031281AD82868A0FB0612D10861
:1045700001EB8101A0EB4100033803280FD840F282
:104580005414C2F200042046012102F06FF82046C4
:10459000002102F05DF82046002102F073F8D7F800
:1045A000B40080087C2819D82868A0FB0612D1081E
:1045B00001EB8101A0EB410007280FD340F2541416
:1045C000C2F200042046012102F05CF820460021DE
:1045D00002F03EF82046002102F048F801B0F0BD9C
:1045E00040F6C850C2F20000D0F88C00312888BFD5
:1045F000704740F2FC00C2F200004FF00421C0F806
:104600001210C0F816104FF480614183704700000B
:1046100040F2FC00C2F200000178427890F802C03B
:1046200062F30A21C3784182D1086CF34A110279FE
:104630008182990941EA830102F0010341EA832161
:10464000C18241795208037C90F811C061F3CA120B
:1046500002836CF30A238A0943830277C1F30111B1
:104660004177704740F6244441F65C1540F6C85641
:10467000C4F20004C2F20005C2F2000620682860FD
:10468000FEF7A2FFB06A0130B06220682968401AC4
:10469000F067012003F066FDF0E7000060B1032938
:1046A00038BF7047B0B54D1E2946FF220446FFF7BC
:1046B0005FFA6055BDE8B0407047000010B5044691
:1046C0000078552801D1607800B110BD2046202126
:1046D00000F054F8002808BF10BD40F22010C2F2CC
:1046E0000000103021462022FBF7C4FD10BD000061
:1046F000B0B5044600284FF000000DD0032938BFA4
:10470000B0BD4D1E20462946FF22FFF731FA615DFC
:10471000401AB0FA80F04009B0BD000088B103290A
:1047200038BF7047B0B5044640F20000C2F2000046
:1047300002888D1E20462946FFF722FC6053BDE803
:10474000B040704740F6244441F6601540F6C85624
:10475000C4F20004C2F20005C2F20006206828601C
:10476000FFF73AFAB0690130B06120682968401A51
:1047700070670A2003F0F6FCF0E7000070B505460C
:1047800000284FF0000008BF70BD0C46032917D366
:1047900040F20000C2F200000288A61E2846314600
:1047A000FFF7EEFBA95DC2B291421CBF002070BDB5
:1047B000611911F8011CA1EB1020B0FA80F040093A
:1047C00070BD0000F0B540F27C01C2F2000191F82A
:1047D00035009FED2E1A00EE100AB8EE400A40F6A2
:1047E0009460D1F83720C2F20000D1F83B30D1F804
:1047F0003FC0D1F843E0D1F84740D1F84B50D1F851
:104800004F60D1F85370D1F85710426000F1140294
:1048100080ED000A8360C0F80CC0C0F810E070C2E0
:10482000C0E9087140F60851C2F2000101F1280701
:104830008CCF40F6C854566BC2F20004366894ED33
:10484000290AD1F8AC504662B8EE400A80ED0A0A57
:10485000C562FE6891F8A5100663BF68B7EE000A4E
:104860004763DF68002987639B68C363D368036479
:104870009268426418BFB0EE401A94ED2D0A80EDA4
:10488000121AB8EE400A80ED130AF0BD00000000D5
:1048900010B504460078552801D1607800B110BDEC
:1048A00020462A21FFF76AFF002808BF10BD40F20A
:1048B0007C00C2F20000333021462A22FBF7DAFCEA
:1048C00010BD000080B50146007855280BD148780E
:1048D000002818BF80BD40F25810C2F200002B30F3
:1048E0002D22FBF7C7FC80BD2DE9F0472DED108B85
:1048F00040F60854C2F200042078032834D09FED1B
:10490000E78A022824D00028B0EE48BAB0EE48AAC0
:10491000B0EE489A40F09480002000BF04EB800184
:1049200089690130D1E901320428CA600B60F5D1F0
:10493000002000BF04EB800189680130D1E9013219
:104940000428CA600B60F5D1BDEC108BBDE8F08780
:1049500040F2FC00C2F20000818A40F233429142F0
:104960002BD3A1F232412EE040F25810C2F20000E7
:10497000D0F82F10D0F8370009EE101A0AEE100AFE
:1049800029EE090A2AEE0A1A30EE01BAB0EE4B0AF5
:1049900005F09EFDB4EE400AB0EE408AF1EE10FA4A
:1049A00080F1E38294F84100B7EE00BA9FEDBB0AB4
:1049B000002808BFB0EE40BA42E040F2CD3291424A
:1049C0000AD8A1F2CE3100EE101A9FEDB51AB8EE5A
:1049D000C00A80EE019A01E09FEDB09A418A40F250
:1049E0003342914202D3A1F2324105E040F2CD328E
:1049F00091420AD8A1F2CE3100EE101A9FEDA91A09
:104A0000B8EEC00A80EE01AA01E09FEDA4AAC08A18
:104A100040F23341884202D3A0F2324005E040F236
:104A2000CD3188420AD8A0F2CE3000EE100A9FEDB8
:104A30009C1AB8EEC00A80EE01BA01E0B0EE48BAA6
:104A4000B0EE4A0AF0EE490A00F0DAFA94F854009F
:104A50009FED95FA002820EE0F0A04BF84ED160A98
:104A600084ED170A94ED171A9FED90CA30EE411AA3
:104A7000B4EE4C1AF1EE10FA02DD9FED8D2A08E03B
:104A80009FED8C2AB4EE421AF1EE10FA03DA9FED94
:104A90008A2A31EE021A94ED162A207894ED11EA52
:104AA00031EE02DA032884ED170A84ED16DA13D00A
:104AB000022822D129EE090A2AEE0A1A31EE008ACA
:104AC000B0EE480A05F004FDB4EE400AF1EE10FA2B
:104AD00080F1528230EE008A3DEE0E0A80EE0F9A8F
:104AE000B0EE490A04F076FB28EE00AAB0EE490ABF
:104AF00005F026FC28EE008A03E09FED68AAB0EEE0
:104B00004A8A1AEE100A06F0F3FC07461BEE100A5A
:104B10008A4606F0EDFC9FED6A0B054653EC102B20
:104B20000E4606F0EFF93A46534605F00BFF05F046
:104B3000D7FE09EE100A18EE100A06F0D9FC9FED18
:104B4000620B8146884653EC102B2846314606F00E
:104B5000D9F902460B464846414605F0F3FE05F0FA
:104B6000BFFE0BEE100A69EE098A2BEE0BDA38EE67
:104B70008DAAB0EE4A0A05F0ABFCB4EE400AB0EEE6
:104B8000408AF1EE10FA80F1D481B0EE4B0AF0EEDB
:104B9000490A00F035FA94F8540020EE0F0A002874
:104BA00004BF84ED180A84ED190A94ED191A30EE49
:104BB000411AB4EE4C1AF1EE10FA02DD9FED3C2AD8
:104BC00008E09FED3C2AB4EE421AF1EE10FA03DA47
:104BD0009FED392A31EE021ADFEDEA9AB4EE691A36
:104BE000F1EE10FA02DD9FEDEDCA06E09FEDEE2A30
:104BF000B4EE421AF1EE10FA07DA94F8500031EEF2
:104C00000C1A80F0010084F8500094ED182A84ED0D
:104C1000190A31EE020A84ED180A9FEDDB0B2846D3
:104C200053EC102B314606F06DF902460B46384620
:104C3000514605F087FE05F053FE0CEE100A2CEEEF
:104C40000CEA3EEE0DDAB0EE4D0A05F041FCB4EE92
:104C5000400AB0EE40AAF1EE10FA80F17181B0EE98
:104C60004B0AF0EE4C0A00F0CBF994F8540020EE19
:104C70000F0A002804BF84ED1A0A84ED1B0A94ED84
:104C80001B1A9FEDC52A30EE411AB4EE421AF1EE1E
:104C900010FA1DDD9FEDC33A23E000BF00000000C5
:104CA00000002544000025C4DE2E65420000344388
:104CB0000000B4C3000034C30000B44300BF00BF11
:104CC000C5A16C2E9EA0E63F49D5919E9EA0E6BF51
:104CD0009FEDB23AB4EE431AF1EE10FA03DA9FED0B
:104CE000B03A31EE031AB4EE691AF1EE10FA02DDB1
:104CF0009FEDAA2A06E09FEDAC3AB4EE431AF1EE1E
:104D000010FA07DA94F8510031EE021A80F001002F
:104D100084F8510094ED1A2A84ED1B0A31EE020A40
:104D200084ED1A0A9FED9A0B284653EC102B31465E
:104D300006F0E8F84A46434605F004FE05F0D0FDCB
:104D40000DEE100A6DEE0DAA3EEE2AEAB0EE4E0A06
:104D500005F0BEFBB4EE400AB0EE40BAF1EE10FA38
:104D600080F1F580B0EE4D0AF0EE4C0A00F048F903
:104D700094F8540020EE0F0A002804BF84ED1C0AAA
:104D800084ED1D0A94ED1D1A9FED832A30EE411A21
:104D9000B4EE421AF1EE10FA02DD9FED823A08E01D
:104DA0009FED7E3AB4EE431AF1EE10FA03DA9FED6E
:104DB0007C3A31EE031AB4EE691AF1EE10FA02DD14
:104DC0009FED762A06E09FED783AB4EE431AF1EEB5
:104DD00010FA07DA94F8520031EE021A80F001005E
:104DE00084F8520094ED1C2A84ED1D0A31EE020A6B
:104DF00038EEAAEA84ED1C0AB0EE4E0A05F068FB14
:104E0000B4EE400AB0EE40CAF1EE10FA80F1A6808E
:104E1000B0EE4D0AF0EE490A00F0F2F894F85400B2
:104E200020EE0F0A002804BF84ED1E0A84ED1F0A3D
:104E300094ED1F1A9FED582A30EE411AB4EE421A33
:104E4000F1EE10FA02DD9FED573A08E09FED533A7C
:104E5000B4EE431AF1EE10FA03DA9FED513A31EE57
:104E6000031AB4EE691AF1EE10FA02DD9FED4B2A37
:104E700006E09FED4D3AB4EE431AF1EE10FA07DA70
:104E800094F8530031EE021A80F0010084F85300C8
:104E90009FED462A9FED464A88EE023A8CEE022AA2
:104EA0008AEE045A8BEE044A84ED1F0A94ED1E0A22
:104EB00094F8500031EE000A84ED1E0A002823EE1B
:104EC0000F0A23EE4F1A08BFB0EE410A94F85300C0
:104ED00062EE0F0A22EE4F1A002808BFF0EE410AD8
:104EE00094F8510025EE0F1A25EE4F2A002808BF2E
:104EF000B0EE421A94F8520064EE0F1A00282046D1
:104F000024EE4F2A08BFF0EE421A01F0EBFA94EDBE
:104F1000180A94ED1A1AD4ED1C1AD4ED1E0A204674
:104F200001F0D2FA012084F85400BDEC108BBDE8EA
:104F3000F087B0EE4A0A05F0CBFAB0EE408A24E6DC
:104F4000B0EE4D0A05F0C4FAB0EE40AA87E6B0EE26
:104F50004E0A05F0BDFAB0EE40BA03E7B0EE4E0AD5
:104F600005F0B6FAB0EE40CA52E7B0EE4B0A05F0D3
:104F7000AFFAB0EE408A15E5B0EE480A05F0A8FA9F
:104F8000A8E500BF0000B442C5A16C2E9EA0E6BFFC
:104F900049D5919E9EA0E63F00003443000034C3F3
:104FA0000000B4430000B4C30000B4C2295C8F3DCC
:104FB000295C8FBD9FED091AB5EE400ABFEE002AAD
:104FC000F1EE10FAB8BFB0EE421AB7EE000AC8BF51
:104FD000B0EE401AB0EE410A704700BF000000007A
:104FE000B4EE410AF1EE10FAB4EE600AC8BFB0EEBA
:104FF000410AF1EE10FAB8BFB0EE600A7047000047
:1050000080B5F5EE400AF1EE10FA4FF00001B5EE72
:10501000400A4FF0000008BF0121F1EE10FA9FEDA9
:10502000201A08BF0120084202D0B0EE410A80BD1C
:10503000B5EE400AF1EE10FA07DDF5EE400AF1EEAA
:1050400010FA02D19FED170A80BDB5EE400AF1EECD
:1050500010FA07DAF5EE400AF1EE10FA02D19FEDF0
:10506000120A80BDB5EE400AF1EE10FA04D1F5EE59
:10507000400AF1EE10FAD8DCB5EE400AF1EE10FA73
:1050800007D1F5EE400AF1EE10FA02DA9FED070AB9
:1050900080BD03F049FFB0EE401AB0EE410A80BD7A
:1050A00000000000DD0FC93FDD0FC9BFDD0F494023
:1050B00010B5B0F5007F1EDDA0F20123082B33D818
:1050C000DFE813F009007C008C009C001401AC00A8
:1050D000BC00CC00DC0040F68840C2F20000036B4C
:1050E00007310133036340F69010C2F200003630FE
:1050F000FBF7C0F810BDB0F5807F46DC012800F05A
:10510000CD80032840F0F28040F68840C2F20000D3
:10511000836807310133836040F69010C2F20000CB
:105120000C30FBF7A7F810BD40F20133984200F0B5
:10513000C48040F20333984218BF10BD40F6884047
:10514000C2F20000836F40F690140133C2F20004F3
:105150008367073104F18A00FBF78CF840F258109E
:10516000C2F200000121C170D4F88A10BFEE001A0B
:1051700000EE101AD4F88E2030EE010A10EE101A4C
:10518000C0F80510C0F8092010BD40F20113984284
:1051900000F0AD80B0F5827F40F0A88040F68840F6
:1051A000C2F20000036A07310133036240F6901037
:1051B000C2F200003430FBF75DF810BD40F68840C5
:1051C000C2F20000836B07310133836340F6901015
:1051D000C2F200005130FBF74DF810BD40F6884098
:1051E000C2F20000036C07310133036440F69010F3
:1051F000C2F200006130FBF73DF810BD40F6884078
:10520000C2F20000836C07310133836440F69010D2
:10521000C2F200007130FBF72DF810BD40F6884057
:10522000C2F20000036D07310133036540F69010B0
:10523000C2F200007230FBF71DF810BD40F6884046
:10524000C2F20000836D07310133836540F6901090
:10525000C2F200007330FBF70DF810BD40F6884035
:10526000C2F20000036E07310133036640F690106E
:10527000C2F200007A30FAF7FDFF10BD40F6884018
:10528000C2F20000836E07310133836640F690104E
:10529000C2F200008030FAF7EDFF10BD40F6884002
:1052A000C2F20000036807310133036040F690103A
:1052B000C2F20000FAF7DEFF10BD40F68840C2F2ED
:1052C0000000036F063A01330367D1F8070040F688
:1052D0009013C2F20003C3F88400B1F80B000D3143
:1052E000A3F8880003F19900FAF7C4FF10BD40F657
:1052F0008840C2F20000836907310133836140F6C0
:105300009010C2F200002C30FAF7B4FF10BD00007C
:105310008178C07840EA01221046CFF6FF70090676
:1053200058BF1046704700000088000400BA70475C
:10533000027E82B10268D0F80CC08B1AC0E900125C
:105340000CEBDC710022A2EB6102934283600DDA68
:105350000CEB03010FE000EE101AC0E90011B8EEEB
:10536000400A012180ED040A01767047B3EB610F1A
:1053700002DDA3EB0C01816090ED020A90ED041AAE
:10538000B8EEC00A31EE000A80ED040A7047000052
:105390000023C0E90033C0E903234161037670476D
:1053A00080B5014651F8180BFBF7B4FC80BD000036
:1053B000DDF800C0016080F8202080F8213080F8FE
:1053C00022C0704780B582B0D0F82C2890F800C079
:1053D000116000F12B0100F158034FF0100E104640
:1053E0002D22CDF800C0CDF804E001F049FB02B059
:1053F00080BD000080B5D0F82C0801F013FC80BD02
:1054000070B5044640F63D20C4F247004EF2481104
:10541000C4F8300845F22A50CBF63A7120600920D2
:10542000C4F834182071601D2421FAF770FF4AF681
:105430000020C0F25500C4F829004FF41060A4F811
:105440002D0004F12F002421FAF761FFAA20002685
:1054500084F857002920C4F8536001F0A1FF0546E5
:1054600001F0FEFB2046C4F82868C4F82C5870BD33
:1054700002790171427170472DE9F04381B02DED41
:10548000028B876B8046387818B9796D0022C1E9A4
:1054900008227978012908BF00280CD108F10801F9
:1054A0006FF00302002300BF8E1876680432766B1B
:1054B0000C2A7362F8D1012864D197ED108B9FED0F
:1054C000400B55EC186B53EC102B3046294606F078
:1054D00056F8002850D19FED3C0B304653EC102B72
:1054E000294606F03EF818B997F85000002849D030
:1054F000B0EE480A7D6DF0EE680A03F015FF9FEDEF
:10550000341B51EC100B53EC112B05F0D7FA05F0BE
:10551000E7F900EE100A284601F0C0F8D8F8380084
:10552000406DC06805F0E4FF41EC110B9FED2A0BC4
:1055300004F0DEF8D8F83800012108F108096FF00E
:10554000030456EC105B80ED120B80F8501000BF86
:1055500009EB04004068476BF86805F0C9FF024694
:105560000B462846314605F0CDFC05F0B9F9043468
:105570000C2CF860ECD105E0796D002087F8500024
:10558000C1E90800D8F83800017802290FD1436D2D
:105590000022C3E9082208F108036FF0030700BFE7
:1055A000DE1976680437766B0C2FF260F8D1417003
:1055B000BDEC028B01B0BDE8F08300BF00BF00BFAF
:1055C000000000000000E03FCDCCCCCCCCCCEC3FC8
:1055D00090CA77020700F0BF02BC051214BF054055
:1055E00082788170C270704710B50446582001F06F
:1055F000D7FE01F0B9FEA0633C2001F0D1FE9FED83
:105600000B1ADFED090AF2EE041AB7EE000AB0EE4B
:10561000612AF0EE612AB0EE613AF0EE413A01F013
:1056200095F8A16B486510BD0AD7A33C00000000A7
:10563000027801704270704770B52DED108B0446F2
:10564000502001F0ADFE46F60005C4F200052946E3
:105650000422012301F0BCFBE061202001F0A0FE48
:10566000DFEDFCCA9FEDFC8A9FEDFCAAB0EE6C0A50
:10567000F0EE480AB0EE481AF0EE4A1A01F0CAFC01
:10568000E169C8623C2001F08BFEDFEDF5DA9FEDA9
:10569000F59ADFEDF59AB2EE04BAB0EE6D0AF0EECF
:1056A000490AB0EE4A1AF0EE4B1AB0EE692AF0EE53
:1056B000692AB0EE693AF0EE693A01F047F8E1691B
:1056C00048633C2001F06CFE9FEDE8FADFEDE8AAAC
:1056D000F3EE09EAB0EE6E0AF0EE4A0AB0EE4A1AAC
:1056E000F0EE4B1AB0EE4F2AF0EE4F2AB0EE6A3AC7
:1056F000F0EE693A01F02AF8E16908631C2001F034
:105700004FFE41F610114FF40052FFF741FEE169E0
:105710004864382001F044FE9FEDD6CA9FEDD6EADA
:105720009FEDD6DA0121B0EE480AF0EE4C0AB0EE59
:105730004E1AF0EE4D1A01F0DFFBE1698863382064
:1057400001F02EFEDFEDCE8ADFEDCEBA0121B0EE04
:10575000480AF0EE4C0AB0EE681AF0EE6B1A01F04F
:10576000CBFBE169C863502001F01AFEA5F5806605
:1057700031460122012301F02BFBA061202001F022
:105780000FFEB0EE6C0AF0EE480AB0EE481AF0EEEA
:105790004A1A01F03FFCA169C8623C2001F000FEFA
:1057A000B0EE6D0AF0EE490AB0EE4A1AF0EE4B1A6E
:1057B000B0EE692AF0EE692AB0EE6A3AF0EE693A84
:1057C00000F0C4FFA16948633C2001F0E9FDB0EEA0
:1057D0006E0AF0EE4A0AB0EE4A1AF0EE4B1AB0EE3C
:1057E0004F2AF0EE4F2AB0EE6A3AF0EE693A00F036
:1057F000ADFFA16908631C2001F0D2FD40F28F11BA
:105800004FF40052FFF7C4FDA1694864382001F04D
:10581000C7FD0121B0EE480AF0EE4C0AB0EE4E1A78
:10582000F0EE4D1A01F068FBA1698863382001F0A1
:10583000B7FD0121B0EE480AF0EE4C0AB0EE681A4E
:10584000F0EE6B1A01F058FBA169C863502001F01B
:10585000A7FD29460322012301F0BAFA2062202085
:1058600001F09EFDB0EE6C0AF0EE480AB0EE481A68
:10587000F0EE4A1A01F0CEFB216AC8623C2001F02A
:105880008FFDB0EE6D0AF0EE490AB0EE4A1AF0EE66
:105890004B1AB0EE692AF0EE692AB0EE6A3AF0EEE1
:1058A000693A00F053FF216A48633C2001F078FD1B
:1058B000B0EE6E0AF0EE4A0AB0EE4A1AF0EE4B1A5B
:1058C000B0EE4F2AF0EE4F2AB0EE6A3AF0EE693AA7
:1058D00000F03CFF216A08631C2001F061FD40F2EA
:1058E000C4614FF40052FFF753FD216A4864382029
:1058F00001F056FD0121B0EE480AF0EE4C0AB0EE80
:105900004E1AF0EE4D1A01F0F7FA216A886338203A
:1059100001F046FD0121B0EE480AF0EE4C0AB0EE6F
:10592000681AF0EE6B1A01F0E7FA216AC86350209A
:1059300001F036FD31460222012301F049FA60628E
:10594000202001F02DFDB0EE6C0AF0EE480AB0EE1A
:10595000481AF0EE4A1A01F05DFB616AC8623C2009
:1059600001F01EFDB0EE6D0AF0EE490AB0EE4A1AE3
:10597000F0EE4B1AB0EE692AF0EE692AB0EE6A3A00
:10598000F0EE693A00F0E2FE616A48633C2001F003
:1059900007FDB0EE6E0AF0EE4A0AB0EE4A1AF0EEDB
:1059A0004B1AB0EE4F2AF0EE4F2AB0EE6A3AF0EE04
:1059B000693A00F0CBFE616A08631C2001F0F0FC3C
:1059C00041F6AD614FF40052FFF7E2FC616A4864B2
:1059D000382001F0E5FC0121B0EE480AF0EE4C0A57
:1059E000B0EE4E1AF0EE4D1A01F086FA616A886345
:1059F000382001F0D5FC0121B0EE480AF0EE4C0A47
:105A0000B0EE681AF0EE6B1A01F076FA616AC863BC
:105A1000542001F0C5FC31460122132301F022F885
:105A2000A060202001F0BCFCDFED17CAF0EE480AB0
:105A3000B0EE6C0AB0EE481AF0EE4A1A01F0EAFA3B
:105A4000A16808633C2001F0ABFCB0EE4A0A00F00C
:105A500021B800BF0000FA456F12833A0000000031
:105A60000000F042CDCCCC3D0000FA4400401C4682
:105A700000409C4517B7D138CDCC4C3F0AD7233CCA
:105A8000CDCC4C3D0AD7A33B00C0DA4500002042F4
:105A9000A69B443BF0EE4A0AB0EE4A1AF0EE4B1ACF
:105AA000B0EE692AF0EE692AB0EE6A3AF0EE693A91
:105AB00000F04CFEA16888633C2001F071FC5FEDB2
:105AC0000DDAF0EE4A0AB0EE6D0AB0EE4A1AF0EEC8
:105AD0004B1AB0EE4F2AF0EE4F2AB0EE6A3AF0EED3
